{
  "contractName": "Election",
  "abi": [
    {
      "constant": true,
      "inputs": [],
      "name": "candidatesCount",
      "outputs": [
        {
          "name": "",
          "type": "uint256"
        }
      ],
      "payable": false,
      "stateMutability": "view",
      "type": "function"
    },
    {
      "constant": true,
      "inputs": [
        {
          "name": "",
          "type": "uint256"
        }
      ],
      "name": "candidates",
      "outputs": [
        {
          "name": "id",
          "type": "uint256"
        },
        {
          "name": "name",
          "type": "string"
        },
        {
          "name": "voteCount",
          "type": "uint256"
        }
      ],
      "payable": false,
      "stateMutability": "view",
      "type": "function"
    },
    {
      "constant": true,
      "inputs": [
        {
          "name": "",
          "type": "address"
        }
      ],
      "name": "voters",
      "outputs": [
        {
          "name": "",
          "type": "bool"
        }
      ],
      "payable": false,
      "stateMutability": "view",
      "type": "function"
    },
    {
      "inputs": [],
      "payable": false,
      "stateMutability": "nonpayable",
      "type": "constructor"
    },
    {
      "anonymous": false,
      "inputs": [
        {
          "indexed": true,
          "name": "_candidateId",
          "type": "uint256"
        }
      ],
      "name": "votedEvent",
      "type": "event"
    },
    {
      "constant": false,
      "inputs": [
        {
          "name": "_candidateId",
          "type": "uint256"
        }
      ],
      "name": "vote",
      "outputs": [],
      "payable": false,
      "stateMutability": "nonpayable",
      "type": "function"
    }
  ],
  "bytecode": "0x608060405234801561001057600080fd5b5061005e6040805190810160405280600b81526020017f43616e64696461746520310000000000000000000000000000000000000000008152506100b0640100000000026401000000009004565b6100ab6040805190810160405280600b81526020017f43616e64696461746520320000000000000000000000000000000000000000008152506100b0640100000000026401000000009004565b6101d1565b60026000815480929190600101919050555060606040519081016040528060025481526020018281526020016000815250600080600254815260200190815260200160002060008201518160000155602082015181600101908051906020019061011b92919061012c565b506040820151816002015590505050565b828054600181600116156101000203166002900490600052602060002090601f016020900481019282601f1061016d57805160ff191683800117855561019b565b8280016001018555821561019b579182015b8281111561019a57825182559160200191906001019061017f565b5b5090506101a891906101ac565b5090565b6101ce91905b808211156101ca5760008160009055506001016101b2565b5090565b90565b610404806101e06000396000f300608060405260043610610062576000357c0100000000000000000000000000000000000000000000000000000000900463ffffffff1680630121b93f146100675780632d35a8a2146100945780633477ee2e146100bf578063a3ec138d14610173575b600080fd5b34801561007357600080fd5b50610092600480360381019080803590602001909291905050506101ce565b005b3480156100a057600080fd5b506100a96102f0565b6040518082815260200191505060405180910390f35b3480156100cb57600080fd5b506100ea600480360381019080803590602001909291905050506102f6565b6040518084815260200180602001838152602001828103825284818151815260200191508051906020019080838360005b8381101561013657808201518184015260208101905061011b565b50505050905090810190601f1680156101635780820380516001836020036101000a031916815260200191505b5094505050505060405180910390f35b34801561017f57600080fd5b506101b4600480360381019080803573ffffffffffffffffffffffffffffffffffffffff1690602001909291905050506103b8565b604051808215151515815260200191505060405180910390f35b600160003373ffffffffffffffffffffffffffffffffffffffff1673ffffffffffffffffffffffffffffffffffffffff16815260200190815260200160002060009054906101000a900460ff1615151561022757600080fd5b60008111801561023957506002548111155b151561024457600080fd5b60018060003373ffffffffffffffffffffffffffffffffffffffff1673ffffffffffffffffffffffffffffffffffffffff16815260200190815260200160002060006101000a81548160ff02191690831515021790555060008082815260200190815260200160002060020160008154809291906001019190505550807ffff3c900d938d21d0990d786e819f29b8d05c1ef587b462b939609625b684b1660405160405180910390a250565b60025481565b6000602052806000526040600020600091509050806000015490806001018054600181600116156101000203166002900480601f0160208091040260200160405190810160405280929190818152602001828054600181600116156101000203166002900480156103a85780601f1061037d576101008083540402835291602001916103a8565b820191906000526020600020905b81548152906001019060200180831161038b57829003601f168201915b5050505050908060020154905083565b60016020528060005260406000206000915054906101000a900460ff16815600a165627a7a7230582046cdd2595b730a15e20f00e828b73955b06d57814ffd7fa24c7f3cf8ba99587b0029",
  "source": "pragma solidity >= 0.4.22 < 0.6.0;\r\n\r\ncontract Election {\r\n    //Model candidate\r\n    //Store candidate\r\n    //Read candidate\r\n    //Constructor\r\n\r\n// declaring state variable as public results in getting getter function for free from solidity, so we can call it like this app.candidate()\r\n    //string public candidate; \r\n    struct Candidate {\r\n        uint id;\r\n        string name;\r\n        uint voteCount;\r\n    }\r\n\r\n//Store candidats with mapping, using key/walue structure\r\n//Fetch candidate with defining the public visibility\r\n    mapping(uint => Candidate) public candidates;\r\n//Store accounts that voted\r\n//Take account addres as a key and give us boolean value, so if we add account address to this mapping and set the value to true, thats how we will keep track of the fact that account has voted\r\n    mapping(address => bool) public voters;\r\n\r\n//Store candidates count\r\n    uint public candidatesCount;\r\n\r\n\r\n// voted event\r\n    event votedEvent (uint indexed _candidateId);\r\n\r\n\r\n\r\n    constructor() public {\r\n        //dodavanje svih kandidata koji ce biti na izboru\r\n        addCandidate(\"Candidate 1\");\r\n        addCandidate(\"Candidate 2\");\r\n    }\r\n\r\n    function addCandidate (string memory _name) private { //private - niko osim nas tj ugovora ne dodaje kandidata na \r\n        candidatesCount++; //predstavlja id kandidata\r\n        candidates[candidatesCount] = Candidate(candidatesCount, _name, 0); // id, name, voteCount\r\n    }\r\n\r\n\r\n//Election.deployed().then(function(i) {app = i}) //app.vote(1, {from : web3.eth.accounts[0]}) --> from metadata is what solidity captures with msg.sender\r\n    function vote(uint _candidateId) public{\r\n        \r\n        require(!voters[msg.sender]); //if the account haven't voted yet\r\n\r\n        require(_candidateId > 0 && _candidateId <= candidatesCount); //checking if account votes for valid candidate\r\n\r\n        //record that voter has voted\r\n        voters[msg.sender] = true; //adding sender of function to the list of addresses that have already voted, default value is false\r\n\r\n        //update candidate vote count\r\n        candidates[_candidateId].voteCount++;\r\n\r\n        //trigger event any time vote is cast\r\n        emit votedEvent(_candidateId);\r\n    }\r\n}",
  "sourcePath": "C:\\Projects\\election\\contracts\\Election.sol",
  "compiler": {
    "name": "solc",
    "version": "0.4.24+commit.e67f0147.Emscripten.clang"
  },
  "schemaVersion": "2.0.1",
  "updatedAt": "2019-01-28T09:53:10.340Z"
}